:03000000020254A5
:0C025400787FE4F6D8FD75814402029B1F
:0A05070011223344550000000000EB
:1004CD00050DB252F409710508B151F3087001120E
:0104DD000F0F
:0B04FB00E4FEEEC39F5004000E80F7EB
:0105060022D2
:0E04DF00E4FFFE0FBF00010EEF64964E70F5B5
:0104ED0022EC
:1004B400E4FEEF339291EF25E0FFD294A293E4336C
:0804C4004207C2940EBE08EAD3
:0104CC00220D
:0B0498007F071204EEAB07AD037F27C7
:1004A300C2901204B4AC07AF051204B4D290AF04E7
:0104B3002226
:0C04EE00C2901204B47FFF1204B4D2903C
:0104FA0022DF
:0603CA008B3E8A3F8940D2
:1003D000C2901204B4AD07E4FCECC3954150177F02
:1003E000FF1204B4AB3EAA3FA9408C82758300EF94
:0A03F0001201120C80E3D290AF0559
:0103FA0022E0
:060398008B3E8A3F894004
:10039E00C2901204B4AD07E4FCECC395415018AB07
:1003AE003E0540E540AA3F7002053F14F91200F9E0
:0B03BE00FF1204B40C80E2D290AF05E7
:0103C9002211
:0603FB008B428A43894495
:10040100120498EB30E61FC295AB42AA43A944758A
:1004110041207F611203CA7DFF7FE21204A3D295BE
:080421001204DF7F00227F01BD
:0104290022B0
:10042A00C2957541207FA0120398D2952092FD12A1
:10043A000498EB30E40A7DFF7FE11204A37F1022C7
:09044A00EB30E5037F20227FFF67
:010453002286
:1002E00078337C007D007BFF7A0579077E007F05EF
:1002F0001200D378387C007D007BFF7A05790C7E74
:10030000007F051200D3C294D290C2957B007A0080
:1003100079337541057F301203987B007A00793874
:100320007541057F101203CAE538B41117E539B4D9
:100330002212E53AB4330DE53BB44408E53CB4552C
:06034000037F00227F0193
:010346002294
:10034700AD07C2957F311204A37DFF7FE21204A39C
:100357008537417F30120398AB38AA39A93A853BD4
:10036700417F2A1203987D017F211204A37F221265
:1003770004A37D1A7F241204A3E4FD7F251204A39E
:10038700AD3C7F261204A37D0F7F201204A3D295D4
:010397002243
:060454007B007A00791321
:10045A00C2957D0E7F201204A3D2957F0F1204FB52
:0F046A0012042AC2957D0F7F201204A3D295227F
:10047900E4FDFCC3ED9FEC9E5014E4FBFA0BBB00BA
:0E048900010AEBF44A70F60DBD00010C80E58F
:010497002242
:1001340043800F43A00F1202E0EF70FA7537057584
:100144003800753900753A08753B0585123C7B000B
:100154007A00790D7F201203479000007F647E00AF
:10016400120479B287A3E582640C458370EED287CA
:10017400C286D28530801530821230A30F30A10C94
:1001840030A20930A00630810302024B7F0A7E00B0
:10019400120479C287D286C28520801E751301207D
:1001A400805F20A305751435800B20A105751436D6
:1001B400800375143112045480E5208220751301E4
:1001C40020821820A305751437800B20A10575140F
:1001D40038800375146212045480E5806020A310F3
:1001E40075143575130120A30512045480F8804D4D
:1001F40020A11075143675130120A1051204548032
:10020400F8803A20A21075143375130120A2051248
:10021400045480F8802720A010751434751301202D
:10022400A00512045480F88014308103020178750B
:10023400143975130120810512045480F87F0A7E55
:1002440000120479020178D287C286D2850201782D
:10026000020134E493A3F8E493A34003F68001F27F
:1002700008DFF48029E493A3F85407240CC8C3339F
:10028000C4540F4420C8834004F456800146F6DF6E
:10029000E4800B01020408102040809004CDE47E2D
:1002A000019360BCA3FF543F30E509541FFEE49363
:1002B000A360010ECF54C025E060A840B8E493A32A
:1002C000FAE493A3F8E493A3C8C582C8CAC583CA55
:1002D000F0A3C8C582C8CAC583CADFE9DEE780BE0D
:0104DE00001D
:10000300E709F608DFFA8046E709F208DFFA803EDF
:1000130088828C83E709F0A3DFFA8032E309F608CC
:10002300DFFA8078E309F208DFFA807088828C8334
:10003300E309F0A3DFFA806489828A83E0A3F608E8
:10004300DFFA805889828A83E0A3F208DFFA804CC2
:1000530080D280FA80C680D4806980F28033801099
:1000630080A680EA809A80A880DA80E280CA803302
:1000730089828A83ECFAE493A3C8C582C8CCC5837A
:10008300CCF0A3C8C582C8CCC583CCDFE9DEE7804A
:100093000D89828A83E493A3F608DFF9ECFAA9F0C9
:1000A300EDFB2289828A83ECFAE0A3C8C582C8CC1F
:1000B300C583CCF0A3C8C582C8CCC583CCDFEADE38
:1000C300E880DB89828A83E493A3F208DFF980CC9A
:1000D30088F0EF60010E4E60C388F0ED2402B40493
:1000E3000050B9F582EB2402B4040050AF2323453A
:0600F3008223900053730C
:1000F900BB010689828A83E0225002E722BBFE0205
:09010900E32289828A83E4932237
:10011200F8BB010DE58229F582E5833AF583E8F023
:10012200225006E92582C8F622BBFE05E92582C8CF
:02013200F222B7
:00000001FF
