:03000000020229D0
:0C022900787FE4F6D8FD75814502027074
:0A04D900112233445500000000001A
:10049C00050EB252F409710509B151F3087001133C
:0404AC000F01080034
:0B04CD00E4FEEEC39F5004000E80F719
:0104D8002201
:0E04B100E4FFFE0FBF00010EEF64964E70F5E3
:0104BF00221A
:10048300E4FEEF339291EF25E0FFD294A293E4339D
:080493004207C2940EBE08EA04
:01049B00223E
:0B0467007F071204C0AB07AD037F2726
:10047200C290120483AC07AF05120483D290AF047A
:010482002257
:0C04C000C2901204837FFF120483D290CC
:0104CC00220D
:06039F008B3F8A408941FA
:1003A500C290120483AD07E4FCECC3954250177F5D
:1003B500FF120483AB3FAA40A9418C82758300EFED
:0A03C5001201120C80E3D290AF0584
:0103CF00220B
:06036D008B3F8A4089412C
:10037300C290120483AD07E4FCECC395425018AB62
:100383003F0541E541AA407002054014F91200F906
:0B039300FF1204830C80E2D290AF0543
:01039E00223C
:0603D0008B438A448945BD
:1003D600120467EB30E61FC295AB43AA44A94575E4
:1003E60042207F6112039F7DFF7FE2120472D29545
:0803F6001204B17F00227F0117
:0103FE0022DC
:1003FF00C2957542207FA012036DD2952092FD12F7
:10040F000467EB30E40A7DFF7FE11204727F102254
:09041F00EB30E5037F20227FFF92
:0104280022B1
:1002B50078347C007D007BFF7A0479D97E007F0548
:1002C5001200D378397C007D007BFF7A0479DE7ECD
:1002D500007F051200D3C294D290C2957B007A00AC
:1002E50079347542057F3012036D7B007A007939C8
:1002F5007542057F1012039FE539B41117E53AB42D
:100305002212E53BB4330DE53CB44408E53DB45554
:06031500037F00227F01BE
:01031B0022BF
:10031C00AD07C2957F311204727DFF7FE212047229
:10032C008538427F3012036DAB39AA3AA93B853C24
:10033C00427F2A12036D7D017F211204727F2212EB
:10034C0004727D1A7F24120472E4FD7F251204725C
:10035C00AD3D7F261204727D0F7F20120472D29560
:01036C00226E
:10042900C2957D0E7F20120472D2957F0F1204CDE2
:0F0439001203FFC2957D0F7F20120472D295220D
:10044800E4FDFCC3ED9FEC9E5014E4FBFA0BBB00EB
:0E045800010AEBF44A70F60DBD00010C80E5C0
:010466002273
:1001340043800F43A00F1202B5EF70FA75380575AE
:100144003900753A00753B09753C0585133D7B0004
:100154007A00790E7F2012031C9000007F647E00D9
:10016400120448B287A3E582640C458370EED287FB
:10017400C286D28530800F30820C30A20930A306AB
:100184003081030202207F0A7E00120448C287D213
:1001940086C2852080167514013080FD740A2508F6
:1001A400F508C39450404A7508508045208216755E
:1001B40014013082FD74F62508F508D39400500329
:1001C400E4F508802C20A2147514013080FD050884
:1001D400E508C394504003750850801520A3197591
:1001E40014013082FD1508E508D394005003E4F5AA
:1001F400088508157B00801330810302017875148B
:10020400013080FDE4F508850815FB7A00791412A5
:1002140004297F0A7E00120448020178D287C2862C
:05022400D28502017803
:10023500020134E493A3F8E493A34003F68001F2AA
:1002450008DFF48029E493A3F85407240CC8C333CA
:10025500C4540F4420C8834004F456800146F6DF99
:10026500E4800B010204081020408090049CE47E89
:10027500019360BCA3FF543F30E509541FFEE4938E
:10028500A360010ECF54C025E060A840B8E493A355
:10029500FAE493A3F8E493A3C8C582C8CAC583CA80
:1002A500F0A3C8C582C8CAC583CADFE9DEE780BE38
:0104B000004B
:10000300E709F608DFFA8046E709F208DFFA803EDF
:1000130088828C83E709F0A3DFFA8032E309F608CC
:10002300DFFA8078E309F208DFFA807088828C8334
:10003300E309F0A3DFFA806489828A83E0A3F608E8
:10004300DFFA805889828A83E0A3F208DFFA804CC2
:1000530080D280FA80C680D4806980F28033801099
:1000630080A680EA809A80A880DA80E280CA803302
:1000730089828A83ECFAE493A3C8C582C8CCC5837A
:10008300CCF0A3C8C582C8CCC583CCDFE9DEE7804A
:100093000D89828A83E493A3F608DFF9ECFAA9F0C9
:1000A300EDFB2289828A83ECFAE0A3C8C582C8CC1F
:1000B300C583CCF0A3C8C582C8CCC583CCDFEADE38
:1000C300E880DB89828A83E493A3F208DFF980CC9A
:1000D30088F0EF60010E4E60C388F0ED2402B40493
:1000E3000050B9F582EB2402B4040050AF2323453A
:0600F3008223900053730C
:1000F900BB010689828A83E0225002E722BBFE0205
:09010900E32289828A83E4932237
:10011200F8BB010DE58229F582E5833AF583E8F023
:10012200225006E92582C8F622BBFE05E92582C8CF
:02013200F222B7
:00000001FF
